:100000000C943D030C9465030C9465030C946503F8
:100010000C9465030C9465030C9465030C946503C0
:100020000C9465030C9465030C94F10D0C94600E14
:100030000C9465030C9465030C9465030C946503A0
:100040000C9465030C9465030C9465030C94650390
:100050000C9465030C9465030C9465030C94921046
:100060000C9465030C9465030C9465030C94650370
:100070000C9465030C9465030C9465030C94650360
:100080000C9465030C9465030C9465030C94650350
:100090000C9465030C9465030C9465030C94650340
:1000A0000C9465030C9465030C94650300407A106E
:1000B000F35A00A0724E18090010A5D4E80000E819
:1000C0007648170000E40B54020000CA9A3B000077
:1000D00000E1F505000080969800000040420F0006
:1000E0000000A08601000000102700000000E803C7
:1000F000000000006400000000000A000000000092
:100100000100000000002C76D888DC674F0823DF50
:10011000C1DFAE59E1B1B796E5E3E453C63AE65123
:10012000997696E8E6C28426EB898C9B62ED407C4A
:100130006FFCEFBC9C9F40F2BAA56FA5F490055AE6
:100140002AF75C936B6CF9676DC11BFCE0E40D470B
:10015000FEF520E6B500D0ED902E0300943577052E
:100160000080841E080000204E0A000000C80C33E6
:100170003333330F986E12831141EF8D2114893B75
:10018000E65516CFFEE6DB18D1844B381BF77C1DF5
:10019000901DA4BBE424203284725E228100C9F148
:1001A00024ECA1E53D276364696E6F707375785820
:1001B0005B00756E7265636F676E697A6564207344
:1001C000657269616C20636F6D6D616E642E207461
:1001D000797065202768656C702720666F72206DC6
:1001E0006F726520696E666F00536F7272792C2092
:1001F00068656C7020636F6D6D616E64206973203B
:100200006E6F742079657420696D706C656D656EB4
:100210007465642E00636F6D70726573736F722006
:10022000636F6D6D616E64733A200A0909090920D4
:100230007365743A20736574202772756E27206F7A
:1002400072202769646C65272070726573737572FC
:10025000652028666C6F617420707369292C207585
:10026000736167653A20636F6D70726573736F7247
:1002700020736574203C72756E2F69646C653E2036
:100280003C70736976616C75653E0A09090909203D
:10029000676574202772756E272C202769646C654A
:1002A000272C206F72202763757272656E74272069
:1002B000736574706F696E74207072657373757294
:1002C000652C206F722073706563696679202773CF
:1002D000746174652720746F206765742072756E71
:1002E000206D6F6465203C72756E6E696E672C20A0
:1002F00069646C696E672C2073746F707065643EFE
:100300000A090909092073746172743A20737461CF
:10031000727420636F6D70726573736F7220686F93
:100320006C64696E672072756E2070726573737588
:1003300072650A090909092073746F703A20737491
:100340006F7020636F6D70726573736F7220637965
:10035000636C650A090909092069646C653A2073B0
:100360007461727420636F6D70726573736F722045
:10037000696E2069646C65206D6F64650A090909FE
:100380000920626C6565643A206F70656E20626C4E
:100390006565642076616C766520616E64206472A8
:1003A0006F7020707265737375726520746F203082
:1003B0000075736167653A2073686F636B205B300B
:1003C0002E2E33202F20616C6C5D206765742F7397
:1003D00065742070726573737572652F68656967DF
:1003E0006874205B736574706F696E742069662031
:1003F00027736574275D0A090909097365747469AF
:100400006E67207072657373757265206F722068F5
:1004100065696768742077696C6C20616C736F2004
:100420007365742073797374656D20746F207468BC
:100430006174206D6F64650A0909090927616C6C94
:1004400027207365747320616C6C2073686F636B15
:100450007320746F2073616D652073657474696EA9
:10046000672F6D6F646500556E7265636F676E69A7
:100470007A65642073686F636B2061726775656D60
:10048000656E742C206D75737420757365207365AB
:10049000742F6765742F68656C7000426C656564C5
:1004A000696E6720636F6D70726573736F7200435E
:1004B0006F6D70726573736F72207374617274659F
:1004C0006420696E2069646C65206D6F64652C2002
:1004D000726567756C6174696E672070726573739D
:1004E0007572652061742000436F6D70726573735F
:1004F0006F722073746F7070656420726567756CBD
:100500006174696E672070726573737572652E0011
:10051000436F6D70726573736F7220737461727460
:10052000656420696E2072756E206D6F64652C2085
:10053000726567756C6174696E672070726573733C
:100540007572652061742000556E7265636F676E09
:10055000697A65642073686F636B20276765742709
:100560002061726775656D656E7400636C692062E9
:100570007566666572206F766572666C6F772100AE
:10058000070605040100080A0B0C0D090000000015
:10059000240027002A002D00300000000000250064
:1005A00028002B002E003100040404040403040579
:1005B0000202020204030202020206060606060600
:1005C00004040202020404040802011040804010E6
:1005D0002040804080080204018040201002011069
:1005E0008010204040200000000200090F0000039E
:1005F0000401000C000000000000000000000000EA
:100600000000000000080B000202020000090400C4
:10061000000102020000052400100105240101016F
:10062000042402060524060001070581031000408A
:1006300009040100020A0000000705020240000050
:10064000070583024000000403090412010002EFC1
:10065000020140412337800001010203014172641D
:1006600075696E6F204C4C430041726475696E6F02
:10067000204D6963726F0000821311241FBECFEFFB
:10068000DAE0DEBFCDBF12E0A0E0B1E0E0EAF9E3DE
:1006900002C005900D92AA3EB107D9F723E0AAEE59
:1006A000B2E001C01D92A137B207E1F713E0CDE33C
:1006B000D3E004C02197FE010E94C517CC33D107B7
:1006C000C9F70E94DC100C94CE1C0C940000FC01B5
:1006D00080911A03882311F13FB7F89482E0809348
:1006E000E9002091F200822F90E01816190614F408
:1006F00081E090E0882339F0289A44E6409319037A
:100700004091F1004083222339F02091F200211121
:1007100003C02BE62093E8003FBF08958FEF9FEFC3
:1007200008952FB7F89483E08093E9009091E80052
:10073000892F807295FF04C09091F20080E4891B9C
:100740002FBF08958091110381110DC082E0809325
:100750000D0384E080930E031092100310920F0398
:1007600081E0809311038DE093E008954091FD02B4
:100770005091FE022091FB023091FC024217530778
:10078000B4F49091E8009570E1F39091E80092FD47
:1007900019C08093F1008091FD029091FE020196B4
:1007A0008F739927892B19F48EEF8093E80080913D
:1007B000FD029091FE0201969093FE028093FD024D
:1007C00081E0089580E00895EF92FF920F931F93C8
:1007D000CF93DF93F82E192FE62E042F81E0860F9A
:1007E000880F0E94B60383E00E94B603CF2DD12F5D
:1007F000EC0EFD2EF11CCE15DF05B9F007FF13C07E
:10080000FE0184910E94B603182F80E00E94B60377
:10081000812321968111EFCFDF91CF911F910F910D
:10082000FF90EF9008958881EDCF81E0F5CFDF92C2
:10083000EF92FF920F931F93CF93DF93D82E8A01ED
:10084000EB017B01E40EF51ECE15DF0559F0D7FE56
:1008500012C0FE0184910E94B60321968111F4CF4B
:100860000FEF1FEFC801DF91CF911F910F91FF9004
:10087000EF90DF9008958881EECF0F931F93CF9371
:10088000DF931F92CDB7DEB782E0898342E450E068
:1008900065E076E080E80E9417040E94A203DC0174
:1008A00012960D911C910115110589F0D801ED9159
:1008B000FC910280F381E02DBE016F5F7F4FC80184
:1008C000099597FD04C0F80100851185ECCF898159
:1008D0000F90DF91CF911F910F910895615030F0EB
:1008E0002091F100FC0120830196F8CF289A84E63C
:1008F000809319030895CF93DF931F92CDB7DEB78E
:100900006983DC01ED91FC910280F381E02D41E0EF
:1009100050E0BE016F5F7F4F09950F90DF91CF913F
:10092000089583E08093E9008091F200882319F014
:100930008AE38093E80008950E94910390E008956F
:10094000CF93DF931F92CDB7DEB7FC0184859585E9
:1009500097FD08C02FEF3FEF358724870F90DF9179
:10096000CF910895CE0101960E946703019719F473
:10097000898190E0F3CF8FEF9FEFF0CF0F931F931C
:10098000CF93DF931F92CDB7DEB78C01FC01848536
:10099000958597FF0BC0CE0101960E9467030197D2
:1009A00071F4898190E0F80195878487F801848546
:1009B00095850F90DF91CF911F910F9108958FEF43
:1009C0009FEFF1CFFC018485958597FD0BC09FB704
:1009D000F89482E08093E9008091F2009FBF90E05C
:1009E000019608959FB7F89482E08093E900809182
:1009F000F2009FBF90E00895282F30E0F901EA51FE
:100A0000FA4F9491F901E953FA4F849128553A4FDE
:100A1000F9012491222309F430C09923E9F091507F
:100A20009F30D0F4E92FF0E0E85EFA4F0C94C51740
:100A300046054A0527053E0542052C052C052C05D3
:100A40004D05530557055B0561052C05650590911E
:100A500080009F7790938000E22FF0E0EE0FFF1F61
:100A6000E656FA4FA591B4919FB7F894EC916111B5
:100A700032C080958E238C939FBF08959091800003
:100A80009F7DE8CF90918000977FE4CF94B59F77CA
:100A900094BDE2CF94B59F7DFBCF909190009F775E
:100AA00090939000D9CF909190009F7DF9CF909135
:100AB0009000977FF5CF9091C0009F779093C000F2
:100AC000CBCF9091C0009F7DF9CF9091C200977FCE
:100AD0009093C200C1CF8E2BCECFCF93DF9390E007
:100AE000FC01E953FA4F249188559A4FFC018491F7
:100AF0008823D1F090E0880F991FFC01E457FA4F4A
:100B0000A591B491FC01E656FA4FC591D4916111BB
:100B10000EC09FB7F8948C91E22FE0958E238C93B2
:100B20002881E223E8839FBFDF91CF9108958FB79B
:100B3000F894EC91E22BEC938FBFF6CF3FB7F8948B
:100B40008091F7029091F802A091F902B091FA0217
:100B500026B5A89B05C02F3F19F00196A11DB11D18
:100B60003FBFBA2FA92F982F8827BC01CD01620F54
:100B7000711D811D911D42E0660F771F881F991F0F
:100B80004A95D1F708958F929F92AF92BF92CF92DC
:100B9000DF92EF92FF924B015C010E949E056B0178
:100BA0007C010E949E056C197D098E099F09683E93
:100BB000734081059105A8F321E0821A9108A108EC
:100BC000B10888EEC80E83E0D81EE11CF11C811428
:100BD0009104A104B10429F7FF90EF90DF90CF902A
:100BE000BF90AF909F908F9008958F929F92AF92F9
:100BF000BF92CF92DF92EF92FF920F931F93CF930A
:100C0000DF936C017B018A0180910B01882309F439
:100C10005CC080911A03882309F457C080910103B6
:100C200080FF05C08091E00082608093E000E801D1
:100C3000B12C8AEFA82E93E0892E2AE3922E2097DA
:100C400011F4BB20D9F10E94910381110AC0AA942A
:100C5000AA20D9F161E070E080E090E00E94C30535
:100C6000EECF8C171D0611F00CF08C2F9FB7F89467
:100C70008092E9002091E80025FD02C09FBFDFCFF0
:100C8000282F30E0C21BD30BF701815020F0419197
:100C90004093F100FACFE20EF31EBB2021F09092B8
:100CA000E800B12CEBCF8091E80085FDE7CF909272
:100CB000E800BB24B394209709F3F3CF5D9A84E650
:100CC00080930003101611063CF081E090E0F601DD
:100CD0009383828310E000E0C801DF91CF911F91E0
:100CE0000F91FF90EF90DF90CF90BF90AF909F90CB
:100CF0008F9008952FB7F8946091F3027091F402E9
:100D00008091F5029091F6022FBF08954F925F9265
:100D10006F927F928F929F92AF92BF92CF92DF920B
:100D2000EF92FF92CF93DF9300D000D000D0CDB7E9
:100D3000DEB79E838D83DC0119966D917D918D9137
:100D40009C911C970E947A176B017C01ED81FE81BA
:100D500065857685878590890E947A174B015C01AD
:100D6000AD81BE8111966D917D918D919C9114976D
:100D70000E947A1769837A838B839C83ED81FE813D
:100D800065817681878190850E947A172B013C01CD
:100D9000AD81BE81EC91E23108F0E251F0E0E05823
:100DA000FA4FE49190917B008E2F880F880F80720C
:100DB0009F7D892B80937B00E770E064E0937C004B
:100DC00080917A00806480937A0080917A0086FD19
:100DD000FCCF8091780020917900322F282F032EAC
:100DE000000C440B550B2419350946095709C70156
:100DF000B601681979098A099B090E94B5172981EA
:100E00003A814B815C8124193509460957090E94B2
:100E1000E816CA01B901680D791D8A1D9B1D0E9443
:100E20005D1626960FB6F894DEBF0FBECDBFDF91DC
:100E3000CF91FF90EF90DF90CF90BF90AF909F90B9
:100E40008F907F906F905F904F90089542E050E0B8
:100E50006BE271E08BE193E00C94F505CF93DF93A7
:100E6000FC0144815581608171818BE193E00E9496
:100E7000F505EC010E9426078C0F9D1FDF91CF9195
:100E80000895CF93DF93D0E0C0E0009771F0FC01AC
:100E900001900020E9F73197AF01481B590BBC01C5
:100EA0008BE193E00E94F505EC010E9426078C0F70
:100EB0009D1FDF91CF9108950F931F93CF93DF93E1
:100EC000EC0188819981009759F02A813B8126178E
:100ED000370730F081E0DF91CF911F910F91089596
:100EE0008B016F5F7F4F0E94F018009759F0998334
:100EF00088831B830A832C813D81232B59F7FC01B6
:100F00001082E8CF80E0E7CFEF92FF920F931F931C
:100F1000CF93DF936115710541F480E0DF91CF91AC
:100F20001F910F91FF90EF90089541155105B1F079
:100F30007B01EC010C811D81040F151FB8010E947B
:100F40005C07882351F3288139818C819D81B70109
:100F5000820F931F0E94BF191D830C8381E0DECF97
:100F6000CF93DF93EC0188819981009711F00E9463
:100F70006718198218821D821C821B821A82DF91D7
:100F8000CF910895CF93DF93EC01FB0101900020F6
:100F9000E9F73197AF01461B570B0E948407811177
:100FA00003C0CE010E94B007CE01DF91CF9108951A
:100FB000CF93DF93EC01FB01448155816081718106
:100FC0000E948407811103C0CE010E94B007CE01A8
:100FD000DF91CF910895EF92FF920F931F93CF93DC
:100FE000DF93EC017B018A01BA010E945C07811149
:100FF0000BC0CE010E94B007CE01DF91CF911F91AF
:101000000F91FF90EF9008951D830C83B7018881A5
:1010100099810E94BF19F0CFEF92FF920F931F9317
:10102000CF93DF93CDB7DEB7A1970FB6F894DEBFAD
:101030000FBECDBF7C01CB01BA01F7011182108236
:1010400013821282158214828E010F5F1F4F22E0DD
:1010500044E00E9497130097C9F0FC010190002022
:10106000E9F73197AF01481B590BBC01C7010E943A
:10107000EB07A1960FB6F894DEBF0FBECDBFDF9190
:10108000CF911F910F91FF90EF900895C7010E949B
:10109000B007EFCFEF92FF920F931F93CF93DF93A1
:1010A000CDB7DEB762970FB6F894DEBF0FBECDBFE7
:1010B0008C01CB01F80111821082138212821582F9
:1010C00014824AE09E012F5F3F4F7901B9010E94CF
:1010D000E113F70101900020E9F73197AF014E19B4
:1010E0005F09B701C8010E94EB0762960FB6F8943A
:1010F000DEBF0FBECDBFDF91CF911F910F91FF904B
:10110000EF900895FC0111821082138212821582E1
:1011100014826115710551F0FB0101900020E9F77F
:101120003197AF01461B570B0C94EB070895FC0158
:1011300080819181009711F00C94671808950F93A6
:101140001F93CF93DF9300D000D000D0CDB7DEB790
:101150008C016EE271E0CE0101960E948208B80116
:10116000CE0101960E94D8070E942E07CE0101965B
:101170000E94970881E026960FB6F894DEBF0FBE56
:10118000CDBFDF91CF911F910F910895CF93DF9342
:1011900000D000D000D0CDB7DEB7BC01CE010196A3
:1011A0000E948208CE0101960E949F08CE010196FE
:1011B0000E94970826960FB6F894DEBF0FBECDBFEB
:1011C000DF91CF910895FB01DC0111961C921E92D4
:1011D00013961C921E92129715961C921E921497AB
:1011E0008617970749F0608171816115710521F0BB
:1011F000448155810C94EB070895AF92BF92CF9232
:10120000DF92EF92FF920F931F93CF93DF93CDB7AF
:10121000DEB76E970FB6F894DEBF0FBECDBF10E0FD
:1012200000E08BE193E00E94E2046091F002709193
:10123000F102181619068CF56F3F710549F040F060
:101240008BE695E00E94C6088FEF9FEF0E94CE1CB0
:10125000CB0101970817190780F08091EE02909159
:10126000EF02605E7F4F7093F1026093F0020E9484
:10127000F0189093EF028093EE028BE193E00E94CE
:10128000A004E091EE02F091EF02E00FF11F8083E5
:101290008A3019F00F5F1F4FC4CF8091EE029091FA
:1012A000EF02FC01E00FF11F10822091F00230915B
:1012B000F102205231090217130770F4B801607E61
:1012C000605E7F4F7093F1026093F0020E94F0180D
:1012D0009093EF028093EE02E090EE02F090EF0226
:1012E000C7010E9441078091EC029091ED02892B89
:1012F00071F481E090E09093ED028093EC0282E043
:1013000090E00E94CB179093EB028093EA02C0908A
:10131000EA02D090EB026FEA71E0C7010E94B513B8
:10132000F60191838083EE24E394F12C6FEA71E05F
:1013300090E080E00E94B5136C012091EC023091A6
:10134000ED028091EA029091EB02C114D10409F1FF
:10135000FFEFEF1AFF0A2E153F056CF4F092ED0235
:10136000E092EC02B701660F771F0E94F01890938D
:10137000EB028093EA02C70181509048880F991FC1
:10138000E091EA02F091EB02E80FF91FD182C082EE
:10139000CDCFE216F3066CF4F092ED02E092EC028F
:1013A000B701660F771F0E94F0189093EB028093AD
:1013B000EA02E090EA02F090EB02F701C080D180EF
:1013C00063E371E0C6010E94B619892B09F08DC252
:1013D000F701D280F38069E371E08D2D9F2D0E948B
:1013E000B619892B09F079C08FEF9FEF9E8F8D8FF3
:1013F000E090EA02F090EB02F701C480D58060E44F
:1014000071E0C6010E94B619892B09F017C1CE01FF
:1014100049969F938F9384E491E09F938F93F70174
:1014200081858F9380858F930E94C619E091EA028F
:10143000F091EB02E680F78067E471E0C7010E945B
:10144000B6190F900F900F900F900F900F90892B5F
:1014500009F067C0498D5A8D6B8D7C8D8D8D9E8D69
:1014600097FF4EC0E3E0F3E081E090E0A191B191FD
:1014700098964D935D936D937C939B979D969C93CB
:101480008E939C9723E0EB30F20781F7CE0107960D
:101490000E940C08E091EA02F091EB0262817381F4
:1014A000CE010D960E94820860E571E0CE01439660
:1014B0000E948208BE01635F7F4FCE0143960E9467
:1014C000D8076FE572E00E94C207BE01695F7F4FD7
:1014D0000E94D8076BE571E06FC0CE014D969F93D7
:1014E0008F938DE391E09F938F93FF92DF920E9401
:1014F000C6190F900F900F900F900F900F9078CF0C
:10150000000F111FF801ED5FFC4F0190F081E02DFD
:1015100040A751A762A773A781E090E095A784A791
:10152000B5CF6FE571E0C7010E94B619892B09F0AC
:1015300080C0498D5A8D6B8D7C8D8D8D9E8D97FFD2
:1015400067C0E3E0F3E08BE093E022E030E0A191BC
:10155000B19194964D935D936D937C9397979D96DF
:101560003C932E939C978E179F0789F7CE01079681
:101570000E940C08E091EA02F091EB026281738113
:10158000CE010D960E94820860E571E0CE0143967F
:101590000E948208BE01635F7F4FCE0143960E9486
:1015A000D80766E671E00E94C207BE01695F7F4FFF
:1015B0000E94D80762E771E00E94C207BC01CE0119
:1015C00001960E94E308CE0101960E949F08CE0179
:1015D00001960E949708CE0143960E949708CE017B
:1015E0000D960E949708CE0107960E9497086E9666
:1015F0000FB6F894DEBF0FBECDBFDF91CF911F9124
:101600000F91FF90EF90DF90CF90BF90AF90089533
:10161000000F111FF801ED5FFC4F0190F081E02DEC
:1016200044A355A366A377A382E090E095A784A77F
:101630009DCF85E791E00E94C608D9CF66E971E0A9
:10164000C6010E94B619892B09F04CC1F701E6804A
:10165000F78067E471E0C7010E94B6198C01892BFD
:1016600009F09AC08D8D9E8D97FF60C053E0A52E26
:1016700053E0B52EF501819191915F0102960E9490
:1016800086066B017C01BC01A601CE0101960E9479
:101690000C08CE0101960E942E07CE0101960E94F1
:1016A0009708B701A601CE0107960E940C08B80161
:1016B000CE010D960E944A086AE971E0CE01439678
:1016C0000E948208BE01635F7F4FCE0143960E9455
:1016D000D80765EA71E00E94C207BE01695F7F4FCB
:1016E0000E94D8076BE571E00E94C207BC01CE01E1
:1016F00001960E94E308CE0101960E949F08CE0148
:1017000001960E949708CE0143960E949708CE0149
:101710000D960E949708CE0107960E9497080F5FCA
:101720001F4F0430110509F0A5CF61CF880F991F15
:10173000FC01ED5FFC4F8081918102960E9486063C
:101740006B017C01BC01A601CE0101960E940C0830
:10175000CE0101960E942E07CE0101960E949708A5
:10176000B701A601CE0107960E940C086D8D7E8DF3
:10177000CE010D960E944A086AE971E0CE014396B7
:101780000E948208BE01635F7F4FCE0143960E9494
:10179000D80765EA71E097CE6FE571E0C7010E9456
:1017A000B6198C01892B09F09AC08D8D9E8D97FFFB
:1017B00060C033E0A32E33E0B32EF5018191919107
:1017C0005F0143960E9486066B017C01BC01A60165
:1017D000CE0101960E940C08CE0101960E942E07B0
:1017E000CE0101960E949708B701A601CE01079687
:1017F0000E940C08B801CE010D960E944A086AE9C1
:1018000071E0CE0143960E948208BE01635F7F4F64
:10181000CE0143960E94D80761EB71E00E94C20797
:10182000BE01695F7F4F0E94D80762E771E00E94A6
:10183000C207BC01CE0101960E94E308CE010196C9
:101840000E949F08CE0101960E949708CE01439600
:101850000E949708CE010D960E949708CE01079628
:101860000E9497080F5F1F4F0430110509F0A5CFA4
:10187000BECE880F991FFC01ED5FFC4F80819181E6
:1018800043960E9486066B017C01BC01A601CE0135
:1018900001960E940C08CE0101960E942E07CE01EF
:1018A00001960E949708B701A601CE0107960E94F3
:1018B0000C086D8D7E8DCE010D960E944A086AE956
:1018C00071E0CE0143960E948208BE01635F7F4FA4
:1018D000CE0143960E94D80761EB71E064CE8BEB9A
:1018E00091E0A9CE8EED91E0A6CE62E172E0C60154
:1018F0000E94B619892B09F049C1F70102811381B1
:1019000060E471E0C8010E94B619892B09F07CC01F
:10191000CE0143969F938F9384E491E09F938F939E
:10192000F70187818F9386818F930E94C619E0917A
:10193000EA02F091EB02068117816DE172E0C801C5
:101940000E94B6190F900F900F900F900F900F906C
:10195000892BC1F5CB88DC88ED88FE8800910B03CC
:1019600010910C03C701B6010E947A17F801778F16
:10197000668FB701A601CE0107960E940C0861E2AE
:1019800072E0CE010D960E948208BE01695F7F4F12
:10199000CE010D960E94D8076BE571E00E94C20748
:1019A000BC01CE0101960E94E308CE0101960E947F
:1019B0009F08CE0101960E949708CE010D960E94C5
:1019C000970811CE65E472E0C8010E94B619892B10
:1019D000C1F4CB88DC88ED88FE8800910B03109160
:1019E0000C03C701B6010E947A17F80171A360A326
:1019F000B701A601CE0107960E940C086AE472E0C6
:101A0000C0CF8DE692E017CE66E971E0F7018481E0
:101A100095810E94B619892B09F05DC0F7010681F6
:101A200017816DE172E0C8010E94B619892B89F413
:101A3000E0910B03F0910C03668D778DCE0101963A
:101A40000E944A08CE0101960E942E07CE010196FF
:101A5000CCCD65E472E0C8010E94B619892B39F437
:101A6000E0910B03F0910C0360A171A1E7CF63E952
:101A700072E0C8010E94B619892B71F480910B03A2
:101A800090910C0302960E948606AB01BC01CE0128
:101A900001960E940C08D6CF6BE972E0C8010E9443
:101AA000B619892BA9F4E0910B03F0910C03838DF7
:101AB000811105C081EA92E00E94410798CD858D91
:101AC000882319F089EA92E0F7CF80EB92E0F4CF17
:101AD00088E495E0B0CD68EB72E0C8010E94B619C9
:101AE000892BE9F4E0910B03F0910C0381E0838FE3
:101AF000158E668D778DCE0107960E944A0860E1AB
:101B000075E0CE010D960E948208BE01695F7F4F8D
:101B1000CE010D960E94D8076EEB72E03FCF63ECCA
:101B200072E0C8010E94B619892B41F4E0910B03C1
:101B3000F0910C03138E88EE94E07DCD65E472E0A5
:101B4000C8010E94B619892B81F4E0910B03F09132
:101B50000C0381E0838F858F60A171A1CE01079670
:101B60000E944A086FEA74E0CCCF68EC72E0C801CA
:101B70000E94B619892B39F48BE994E00E94C608BB
:101B80008EEC92E058CD87E694E055CD6DE072E0A2
:101B9000C6010E94B619892B09F58091EC0290913B
:101BA000ED02019709F423CDF7010281138163E36C
:101BB00071E0C8010E94B619892B19F481EB93E0FA
:101BC0007BCF62E172E0C8010E94B619892B19F43B
:101BD00085E192E071CF89EE91E02DCD82EB91E02D
:101BE0006BCF1F920F920FB60F9211248F939F937A
:101BF0008091E1009091E100937F9093E10083FF59
:101C00000FC01092E90091E09093EB001092EC006D
:101C100092E39093ED0010921A0398E09093F000F5
:101C200082FF22C093E09093E9009091F200992303
:101C300019F09AE39093E80090910003992341F002
:101C400090910003915090930003911101C05D9811
:101C500090911903992341F0909119039150909319
:101C60001903911101C0289884FF18C08091E200E7
:101C70008E7E81608093E2008091E1008F7E809370
:101C8000E100809101038E7E8061809301039F912A
:101C90008F910F900FBE0F901F90189580FFF7CF78
:101CA0008091E2008E7E80618093E2008091E1006D
:101CB0008E7E8093E100809101038E7E8160E5CF6E
:101CC0001F920F920FB60F921124CF92DF92EF92D4
:101CD000FF920F931F932F933F934F935F936F93B5
:101CE0007F938F939F93AF93BF93EF93FF93CF9384
:101CF000DF93CDB7DEB76C97DEBFCDBF1092E900A2
:101D00008091E80083FF25C068E0CE0145960E94DF
:101D10006E0482EF8093E8008D8987FF39C090912F
:101D2000E80090FFFCCF982F907609F034C19E898F
:101D30004F89588D2F89F88C911131C0803861F509
:101D4000809102038093F1001092F1008EEF809356
:101D5000E8006C960FB6F894DEBF0FBECDBFDF91E2
:101D6000CF91FF91EF91BF91AF919F918F917F9113
:101D70006F915F914F913F912F911F910F91FF9024
:101D8000EF90DF90CF900F900FBE0F901F9018959F
:101D90009EEF9093E800C7CF1092F100D5CF91301D
:101DA00059F48111D3CF4130510581F6809102035E
:101DB0008D7F80930203CACF933049F48111C6CF3F
:101DC0004130510519F6809102038260F2CF9530BF
:101DD00041F48091E80080FFFCCF20682093E3006D
:101DE000B5CF963009F0A9C00B8D1C8D22E0109262
:101DF000E9001092FE021092FD02F2122EC0109223
:101E0000FC021092FB020E943D041F8299E099831C
:101E1000FA8291E09E8390EA98879AEF99872091C1
:101E2000FD023091FE02275F3F4F3C832B838D8361
:101E30001092E9001092FE021092FD021093FC0233
:101E40000093FB0249E050E0BE016F5F7F4F80E0EE
:101E50000E9417040E943D0479CF1093FC02009366
:101E6000FB020E94A203DC0112960D911C91011548
:101E7000110509F451C1D801ED91FC910480F5815F
:101E8000E02DBE016B5E7F4FC8010995009709F0F8
:101E90003EC1F80100851185EACFF3E0FF120EC0C4
:101EA0008F89882309F440C0823061F440E86DE0F6
:101EB00089E696E00E94E403811148CF81E2809395
:101EC000EB0047CF813029F440E86BE08DE596E0E8
:101ED000F1CF833099F70E94A203DC011296ED90B6
:101EE000FC908E010F5F1F4F6801E114F10479F03F
:101EF000D701ED91FC910680F781E02DB801C70173
:101F00000995080F111DF701E084F184EECFD80187
:101F10001C92F60101900020E9F73197BF016C197E
:101F20007D0940E0C601C6CF67E476E0FB0144913D
:101F300050E080E80E94170409CF973009F4BECF23
:101F4000983021F481E08093F10000CF993009F0BE
:101F5000FDCE837009F0B2CFE5E2F1E081E031E03F
:101F600096E32191222371F08093E9003093EB00F6
:101F7000DF0111972C912093EC009093ED008F5F7F
:101F8000873079F78EE78093EA001092EA008F8914
:101F900080931A03DBCE8B8D9C8D1092E9001092FA
:101FA000FE021092FD029093FC028093FB02898D49
:101FB000811192C08E899D89913A49F4813209F04C
:101FC0007DCF47E050E064E071E080E0B3CF913234
:101FD00009F074CF833269F48F89988DB0E0A0E066
:101FE0008093000190930101A0930201B09303013B
:101FF000ADCE803269F48091E80082FFFCCF67E0CB
:1020000084E091E00E946E048BEF8093E8009ECE06
:10201000823209F09BCE8F8980930B01EEEFFFE7B0
:10202000859194918B3F9C4D51F1E0E0F8E08091D7
:10203000040190910501A0910601B0910701803B38
:102040009440A105B105F1F480910B0180FD1AC007
:10205000EE3F8AE0F80789F587E797E79183808369
:10206000809160008093FF0288E19BE00FB6F894B6
:10207000A895809360000FBE9093600067CEEEEF4E
:10208000FAE0D5CF808191818737974709F05ECEFE
:10209000A895809160008861809360008091FF0224
:1020A00080936000EE3F2AE0F20789F08091FE0AFB
:1020B0009091FF0A9183808349CE808191818737F7
:1020C000980751F29093FF0A8093FE0AC5CF1092B1
:1020D000FF0A1092FE0A3ACE0E94A203DC01129679
:1020E0000D911C910115110509F4E8CED801ED916F
:1020F000FC910190F081E02DBE016B5E7F4FC80125
:102100000995811123CEF80100851185EBCF1816B2
:1021100019060CF41BCED2CEF1E0FF12BECE6BE45A
:1021200076E004CF1F920F920FB60F9211242F93D7
:102130003F938F939F93AF93BF938091F3029091BE
:10214000F402A091F502B091F6023091F20223E080
:10215000230F2D3758F50196A11DB11D2093F202D2
:102160008093F3029093F402A093F502B093F602E9
:102170008091F7029091F802A091F902B091FA02D1
:102180000196A11DB11D8093F7029093F802A093D0
:10219000F902B093FA02BF91AF919F918F913F9155
:1021A0002F910F900FBE0F901F90189526E8230FC8
:1021B0000296A11DB11DD2CFCF93DF9300D01F9205
:1021C000CDB7DEB7789484B5826084BD84B5816074
:1021D00084BD85B5826085BD85B5816085BD8091F2
:1021E0006E00816080936E0010928100809181006A
:1021F0008260809381008091810081608093810062
:102200008091800081608093800080919100826045
:1022100080939100809191008160809391008091E2
:1022200090008160809390008091C10084608093D1
:10223000C1008091C10082608093C1008091C10083
:1022400081608093C1008091C30081608093C3004E
:102250008091C00082608093C0008091C200816044
:102260008093C20080917A00846080937A0080918C
:102270007A00826080937A0080917A0081608093F6
:102280007A0080917A00806880937A0010921A0315
:1022900010920203109201038091D7008160809315
:1022A000D70080EA8093D80089B5806189BD89B55F
:1022B000826089BD09B400FEFDCF61E070E080E07E
:1022C00090E00E94C3058091D8008F7C806180934C
:1022D000D8008091E000807F8093E0008091E10051
:1022E0008E7E8093E1008DE08093E200559A209AE3
:1022F0005D9828988FEF9FEF909328038093270392
:1023000020910B0129836AE070E080E090E00E9458
:10231000C3058981811107C06AE070E080E090E028
:102320000E94C305EDCF93E0292E93E0392E12E0F1
:102330002DECC22E2CECD22E2CE4E22E24E4F22E34
:102340003DEC832E3CEC932E3CE4A32E33E4B32EE1
:10235000412C512C40EF642E41E4742E8EE290E02B
:102360000E94CB179B838A8308E0010F94E0910FB2
:102370009983AA81BB8111961C921197FD01C3829A
:10238000D482E582F68217968D929D92AD92BC9290
:102390001A9780E090E0A8E4B2E483879487A58749
:1023A000B68780E090E0A0E7B1E48787908BA18BAF
:1023B000B28BC48AD58AE68AF78A808E918EA28EE5
:1023C000B38E80E090E0A8ECB2E4848F958FA68F66
:1023D000B78F40A251A262A273A261E0812F0E9436
:1023E0006D05EA81FB8110838281081729F0028341
:1023F00060E0802F0E946D0560E089810E946D057C
:10240000E981AA81BB815396EC935397F101A19383
:10241000B1931F011F5F163009F0A0CF82E290E058
:102420000E94CB179B838A83DC0111961C928DEC52
:102430009CECACE4B4E4EA81FB8183839483A583C0
:10244000B6838DEC9CECACE4B3E487839087A187E2
:10245000B28780E090E0A8E4B2E483879487A58700
:10246000B68780E090E0A0E7B1E48787908BA18BEE
:10247000B28B0E947A06AA81BB8153966D937D939D
:102480008D939C9356978FE090E05A969C938E93F1
:1024900059975B961C925B975C961C925C975D9635
:1024A0001C925D9789E690E05F969C938E935E9771
:1024B0008CE390E091969C938E93909712968C91DA
:1024C00012978F3031F08FE012968C9360E00E946B
:1024D0006D058EE0EA81FB81808361E00E946D05DD
:1024E0008A819B8190930C0380930B0380E0E82EFC
:1024F00080E0F82E8BE193E00E94E20418161906A2
:1025000014F40E94FD08A0910B03B0910C03BB834F
:10251000AA835D968C915D97882309F4CCC0909630
:102520008D919C91919758969C938E935797AA81E1
:10253000BB8111968C9111975B969C915B97992327
:1025400009F4CCC08D010E5F1F4F811139C0C80145
:102550000E9486064B015C01EA81FB816789708DD0
:10256000818D928D681B790B072E000C880B990BBF
:102570000E945D169B01AC01C501B4010E94561674
:1025800087FF17C0AA81BB815C968C915C978111F3
:1025900010C081E011968C93119760E08C910E949D
:1025A000FC040E947A06EA81FB81638B748B858B25
:1025B000968BAA81BB8111968C91882309F453C014
:1025C000C8010E9486064B015C01EA81FB81678994
:1025D000708D818D928D680F791F072E000C880BEE
:1025E000990B0E945D169B01AC01C501B4010E94CC
:1025F000B01787FD67C0AA81BB8111961C92119705
:1026000061E08C910E94FC040E947A06EA81FB81C1
:10261000638B748B858B968B0E947A06AA81BB8113
:1026200053960D911D912D913C915697601B710B06
:10263000820B930B60367A4E81059105A0F0EA81FA
:10264000FB81118261E080810E94FC040E947A0675
:10265000AA81BB8153966D937D938D939C935697DE
:1026600081E05C968C93EA81FB81848D8823B1F0B4
:102670000E947A06AA81BB8153960D911D912D91DE
:102680003C915697601B710B820B930B60367A4E10
:102690008105910518F0EA81FB81148E6AE070E0F3
:1026A00080E090E00E94C305E114F10409F422CF18
:1026B0000E9400001FCFEA81FB81868D978D908F4D
:1026C000878B35CFC8010E94860620E030E046E1C6
:1026D00053E40E94B01787FF8ECF9ECF882339F036
:1026E000EA81FB81118261E080810E94FC040E94EA
:1026F0007A06AA81BB8153966D937D938D939C93AB
:102700005697B1CFEBE1F3E01382128288EE93E0AB
:10271000A0E0B0E084839583A683B78386E191E04F
:10272000918380838FEF9FEF958784870895EF9241
:102730000F931F93CF93DF93E80134E047FD34E11B
:10274000042E000C550B57FF03C0519541955109BC
:10275000E32E022F242FAE010E940614CE01DF913A
:10276000CF911F910F91EF9008954BE653E00E9497
:10277000BA130895FA01A191B081009719F4109746
:10278000E1F0CD01DC01CD010D90002011F4C0017C
:1027900013C0FB012191222319F02015D9F7F3CFA3
:1027A000FB012191201519F41E92119606C02223D7
:1027B000C1F70D900020A1F7D001FA01A193B083D9
:1027C0000895BB274A3031F4992322F4BDE2909555
:1027D00081959F4F0C94ED13BB27FB015527AA272A
:1027E000880F991FAA1FA41710F0A41B839550519E
:1027F000B9F7A05DAA3308F0A95DA193009779F716
:10280000B111B1931192CB010C944616A9E0B0E03E
:10281000ECE0F4E10C9418176A01F22EB02E102FA0
:10282000FBE3AF2EA01608F41BE31F5F012F27E088
:10283000AE014F5F5F4F0E946515BC018981982FE3
:102840009970913009F43FC09BE2E1FC04C09E2DD9
:102850009170E0FC3AC05E2D5071E82FE87083FF64
:1028600046C084E0911101C083E0EF2DE81B8F1575
:1028700008F0E0E0D6018E2F20E2552351F1992394
:1028800029F0D6019C93C60101966C0196012D5F3B
:102890003F4FE2FE24C08EE4D6018C9391E4119662
:1028A0009C93119712968C93D9018E2F90E28111EF
:1028B0001BC0E20FF32FF11D10828EEF9FEF2996C0
:1028C000ECE00C9434179DE2C6CF90E2C4CF2D9378
:1028D00081508111FCCFCE0ED11CE0E0D0CF8EE62E
:1028E000D6018C9391E6DBCF9D938150E0CF482FAA
:1028F000447082FF3DC084E0911101C083E08F15D8
:1029000010F4EF2DE81BD6018E2F20E2552309F19C
:10291000992329F0D6019C93C60101966C0196017A
:102920002D5F3F4FE2FE1BC089E4D6018C938EE4FD
:1029300011968C93119786E412968C93D9018E2F61
:1029400090E2882309F4B5CF9D938150FACF2D935F
:1029500081508111FCCFCE0ED11CE0E0D9CF89E6A9
:10296000D6018C938EE611968C93119786E6E4CF70
:102970009B0177FF02C030E020E0A1E0B0E09111C0
:1029800002C0B0E0A0E0F9013196AE0FBF1F8B2C62
:10299000912CBB2009F461C05401EFEFAE1ABE0ABE
:1029A000AA0DBB1DFA161B0619F014F04F2D4A1B79
:1029B000511188C0E3FC59C07601A42FB0E2A111E7
:1029C0004FC0C40ED11C992309F45BC040E0D6016E
:1029D0001196F60190836D01552309F448C0012F2B
:1029E000060F9A81582F507184FF03C0913309F468
:1029F000015010160CF047C0093008F008E0EEE274
:102A0000FE2E5B01A01AB108850191948194910872
:102A10002F3F320729F4D601FC92F60131966F015F
:102A20006217730794F1021713077CF5DB01A21BF1
:102A3000B30BAA24A394B12CAC0EBD1EAA0DBB1DD2
:102A400011968C9121503109D6011196281539051E
:102A5000F4F0F60180836D01DBCFB12CA12CA0CF67
:102A6000F701B1937F01A150AACF9111B0CFD60148
:102A7000942F50E302C05D9391509111FCCFC40E8E
:102A8000D11C40E0ACCF01E0BACF80E3DBCF6217CE
:102A9000730731F4963388F4953311F4552369F0B4
:102AA000F6018083FD01842F90E2811108C0A40FFC
:102AB000B11D1C9290E080E002CF81E3F1CF9193B1
:102AC0008150F3CF911183CF8ACF283008F027E0CF
:102AD0003327DA01990F311D87FD9160009661055A
:102AE000710539F432602E5F3D9330E32A95E1F7AA
:102AF00008959F3F30F080387105610509F03C5F13
:102B00003C5F3D93913008F08068911DDF93CF9337
:102B10001F930F93FF92EF92192F987F9695E92FAD
:102B200096959695E90FFF27EA5FFE4F9927332781
:102B3000EE24FF24A701E70105900894079428F4E8
:102B4000360FE71EF81E491F511D660F771F881F9D
:102B5000991F0694A1F70590079428F4E70EF81E34
:102B6000491F561FC11D770F881F991F661F0694A6
:102B7000A1F70590079428F4F80E491F561FC71FA8
:102B8000D11D880F991F661F771F0694A1F7059026
:102B9000079420F4490F561FC71FD81F990F661FAF
:102BA000771F881F0694A9F784911095177041F03C
:102BB000D695C79557954795F794E7941A95C1F719
:102BC000ECEAF0E068941590159135916591959136
:102BD00005907FE27395E118F10A430B560BC90B80
:102BE000D009C0F7E10CF11E431F561FC91FD01DAD
:102BF0007EF4703311F48A95E6CFE894015030F0FA
:102C0000080F0AF40027021708F4202F2395022F3B
:102C10007A3328F079E37D932A95E9F710C07D9304
:102C20002A9589F606949795679537951795179481
:102C3000E118F10A430B560BC90BD00998F0239504
:102C40007E9173957A3308F070E37C932013B8F784
:102C50007E9170617D9330F0839571E37D9370E395
:102C60002A95E1F71124EF90FF900F911F91CF91DA
:102C7000DF91992787FD9095089591110C94BC16CA
:102C8000803219F089508550C8F70895DC01FC01A5
:102C9000672F71917723E1F7329704C07C916D9390
:102CA00070836291AE17BF07C8F308950E9498160B
:102CB00008F481E00895E89409C097FB3EF49095EC
:102CC0008095709561957F4F8F4F9F4F9923A9F005
:102CD000F92F96E9BB279395F69587957795679594
:102CE000B795F111F8CFFAF4BB0F11F460FF1BC0D8
:102CF0006F5F7F4F8F4F9F4F16C0882311F096E96B
:102D000011C0772321F09EE8872F762F05C0662318
:102D100071F096E8862F70E060E02AF09A95660FD1
:102D2000771F881FDAF7880F9695879597F908958A
:102D3000990F0008550FAA0BE0E8FEEF16161706CC
:102D4000E807F907C0F012161306E407F50798F034
:102D5000621B730B840B950B39F40A2661F0232B4D
:102D6000242B252B21F408950A2609F4A140A695C9
:102D70008FEF811D811D089599278827089557FD9C
:102D80009058440F551F59F05F3F71F04795880FD9
:102D900097FB991F61F09F3F79F087950895121670
:102DA00013061406551FF2CF4695F1DF08C016161C
:102DB00017061806991FF1CF8695710561050894CD
:102DC0000895E894BB2766277727CB0197F90895E4
:102DD000052E97FB1EF400940E94FF1657FD07D0A6
:102DE0000E94491707FC03D04EF40C94FF1650952F
:102DF0004095309521953F4F4F4F5F4F08959095E7
:102E00008095709561957F4F8F4F9F4F08950E94D9
:102E10006B17A59F900DB49F900DA49F800D911DE1
:102E2000112408952F923F924F925F926F927F925A
:102E30008F929F92AF92BF92CF92DF92EF92FF92CA
:102E40000F931F93CF93DF93CDB7DEB7CA1BDB0B76
:102E50000FB6F894DEBF0FBECDBF09942A8839881B
:102E600048885F846E847D848C849B84AA84B98422
:102E7000C884DF80EE80FD800C811B81AA81B9812E
:102E8000CE0FD11D0FB6F894DEBF0FBECDBFED0142
:102E90000895A1E21A2EAA1BBB1BFD010DC0AA1F9B
:102EA000BB1FEE1FFF1FA217B307E407F50720F0B3
:102EB000A21BB30BE40BF50B661F771F881F991F2E
:102EC0001A9469F760957095809590959B01AC0177
:102ED000BD01CF010895A29FB001B39FC001A39F80
:102EE000700D811D1124911DB29F700D811D112443
:102EF000911D08950E9481176894B1110C94E216F7
:102F000008950E94C71688F09F5798F0B92F992707
:102F1000B751B0F0E1F0660F771F881F991F1AF0C4
:102F2000BA95C9F714C0B13091F00E94E116B1E032
:102F300008950C94E116672F782F8827B85F39F031
:102F4000B93FCCF3869577956795B395D9F73EF45D
:102F500090958095709561957F4F8F4F9F4F089505
:102F60000E94981608F48FEF0895DB018F939F93CA
:102F70000E940717BF91AF91A29F800D911DA39F43
:102F8000900DB29F900D11240895EE0FFF1F059034
:102F9000F491E02D09940F931F93CF93DF93823028
:102FA000910510F482E090E0E0916F03F0917003DE
:102FB00030E020E0B0E0A0E0309799F42115310531
:102FC00009F44AC0281B390B24303105D8F58A8111
:102FD0009B816115710589F1FB0193838283FE0159
:102FE00011C0408151810281138148175907E0F0D7
:102FF0004817590799F4109761F012960C9312979D
:1030000013961C933296CF01DF91CF911F910F91B0
:10301000089500936F0310937003F4CF21153105C9
:1030200051F04217530738F0A901DB019A01BD01A5
:10303000DF01F801C1CFEF01F9CF909370038093C6
:103040006F03CDCFFE01E20FF31F819391932250C6
:10305000310939832883D7CF20916D0330916E03D6
:10306000232B41F420910E0130910F0130936E0318
:1030700020936D0320910C0130910D012115310534
:1030800041F42DB73EB74091100150911101241B1E
:10309000350BE0916D03F0916E03E217F307A0F496
:1030A0002E1B3F0B2817390778F0AC014E5F5F4F9E
:1030B0002417350748F04E0F5F1F50936E0340935F
:1030C0006D03819391939FCFF0E0E0E09CCFCF938D
:1030D000DF930097E9F0FC01329713821282A091EE
:1030E0006F03B0917003ED0130E020E01097A1F480
:1030F00020813181820F931F20916D0330916E03E7
:103100002817390709F061C0F0936E03E0936D034F
:10311000DF91CF910895EA01CE17DF07E8F54A81E4
:103120005B819E0141155105B1F7E901FB83EA83FB
:1031300049915991C40FD51FEC17FD0761F48081A7
:1031400091810296840F951FE9019983888382817A
:1031500093819B838A83F0E0E0E012968D919C91AD
:1031600013970097B9F52D913C911197CD010296D7
:10317000820F931F20916D0330916E03281739073A
:1031800039F6309751F51092700310926F03B09397
:103190006E03A0936D03BCCFD383C2834081518162
:1031A000840F951FC817D90761F44E5F5F4F888160
:1031B0009981480F591F518340838A819B81938352
:1031C00082832115310509F0B0CFF0937003E093AD
:1031D0006F039ECFFD01DC01C0CF13821282D7CFD7
:1031E000B0E0A0E0E6EFF8E10C9414178C01009732
:1031F00051F4CB010E94CB178C01C801CDB7DEB7CB
:10320000E0E10C943017FC01E60FF71F9C012250FF
:103210003109E217F30708F49DC0D901CD91DC9183
:103220001197C617D70798F0C530D10530F3CE01F6
:1032300004978617970708F3C61BD70B2297C193ED
:10324000D1936D937C93CF010E946718D6CF5B0119
:10325000AC1ABD0A4C018C0E9D1EA0916F03B0915B
:103260007003512C412CF12CE12C109731F58091F9
:103270006D0390916E038815990509F05CC04616A0
:10328000570608F058C080910C0190910D010097ED
:1032900041F48DB79EB74091100150911101841BEC
:1032A000950BE817F90708F055C0F0936E03E0930B
:1032B0006D03F90171836083A0CF8D919C9111976B
:1032C00012966C90129713967C901397A815B905D7
:1032D00059F56C0142E0C40ED11CCA14DB0420F184
:1032E000AC014A195B09DA011296159780F06282E7
:1032F000738251834083D9016D937C93E114F1046F
:1033000071F0D7011396FC93EE93129776CF229625
:103310008C0F9D1FF90191838083F301EFCFF09310
:103320007003E0936F0369CF4816590608F42C0127
:103330007D01D3019ACFCB010E94CB177C0100976E
:1033400049F0AE01B8010E94AD19C8010E9467188A
:10335000870153CF10E000E050CFFB01DC0102C039
:1033600001900D9241505040D8F70895FB01DC01C7
:103370008D91019080190110D9F3990B0895FB01EB
:10338000DC0101900D920020E1F70895AEE0B0E07D
:10339000ECECF9E10C94221785E08C838B899C89F5
:1033A0009A838983AE01495E5F4F6D897E89CE0124
:1033B00001960E946A1B2E96E2E00C943E1720FDB7
:1033C00009C0FC0123FD05C022FF02C07383628394
:1033D00051834083089544FD17C046FD1DC0DB01A5
:1033E000FC01AA0FBB1FEE1FFF1F1094D1F76A0F3D
:1033F0007B1F8E1F9F1F660F771F881F991F620FED
:10340000711D811D911D089533E0660F771F881F80
:10341000991F3150D1F7F3CF34E0F7CF0F931F93BB
:10342000CF93DF938C01C8010E947A1CEC0197FDB9
:1034300008C00E943D16892BB1F7B801CE010E9449
:10344000B61CCE01DF91CF911F910F9108958F92FD
:103450009F92AF92BF92EF92FF920F931F93CF93E1
:10346000DF938C01D62F7A01B22E0E947A1C9C0128
:1034700033272B32310529F02D323105A9F4689418
:10348000B7F8D15061F480E0DF91CF911F910F9197
:10349000FF90EF90BF90AF909F908F900895C801DC
:1034A0000E947A1C97FDEFCFCB2DCD7F2B2D207363
:1034B000F9F48033E9F4AA24AA94AD0E89F0C80186
:1034C0000E947A1C97FD0CC0282F2F7D283561F4AF
:1034D000C264D25029F0C8010E947A1C97FF08C02C
:1034E000812C912C54011BC0B6FE2BC0C260DA2D7A
:1034F000812C912C540120ED280F283028F1C4FD97
:1035000009C02A3008F1C6FF05C02F7D3FEE320FFB
:103510003630C8F0B8010E94B61CC1FFB4CFC7FF57
:1035200008C0B094A09490948094811C911CA11C1C
:10353000B11C2C2FB501A401C7010E94DF1981E045
:10354000A3CFC261D4CF27504C2FC501B4010E9434
:10355000EB194B015C01C260D15009F3C8010E9414
:103560007A1C97FFC8CFD9CFA0E2B0E0EAEBFAE12E
:103570000C9417175C01962E7A01CE0101966C010E
:1035800080E2F60111928A95E9F7F501B38189018C
:1035900030E020E0712C812CA0E041E050E0F80107
:1035A000B3FD8591B3FF8191982F8F01811107C0E1
:1035B00010E000E0C801A096EDE00C9433178E35C2
:1035C00019F42115310541F1A21713064CF48D357C
:1035D00049F18D3229F4811006C0882483941DC0DE
:1035E000882009F464C0E92FE695E695E695EC0D90
:1035F000FD2DF11D892F8770BA0101C0660F8A95D4
:10360000EAF78081682B6083791651F0971510F4E2
:103610009F5FE9CF9150E7CFA1E02F5F3F4FBFCF32
:10362000812CFBCF882019F08E8180628E83AA23A3
:1036300059F0F6019E012F5D3F4F80818095808378
:103640003196E217F307C9F788248394C5010E94D5
:103650007A1C97FD16C0E82FE695E695E695EC0DE9
:10366000FD2DF11D208130E0AC014770552702C0CF
:10367000359527954A95E2F720FD06C0B5010E94D1
:10368000B61C882069F094CFE114F10429F0F70109
:103690008083C70101967C019A94812C9110D6CF2A
:1036A000E114F10409F486CFF701108283CFE82FEB
:1036B000E695E695E695EC0DFD2DF11D982F97709A
:1036C000BA0101C0660F9A95EAF79081692B608371
:1036D000782EA3CFB0E0A0E0E0E7FBE10C94151753
:1036E0006C01EB015A01FC0117821682512CF60184
:1036F000E380FE01E3FC8591E3FE8191182FEF0149
:103700008823E9F090E00E943D16892B21F0C60144
:103710000E940E1AECCF153241F4FE01E3FC159124
:10372000E3FE1191EF01153269F4C6010E947A1C83
:1037300097FD8EC01817D9F2B6010E94B61C852DD0
:1037400090E08AC000E01A3231F4E3FC1591E3FE08
:103750001191EF0101E0F12C20ED210F2A3048F109
:1037600001FF37C0FF2059F31836B1F11C3609F4B8
:103770003DC0112321F3612F70E086EA91E00E94A1
:103780006F1C892BE1F2912C812C00FD06C0F50104
:1037900080809180C50102965C011E3679F5F601A4
:1037A0004681578170E060E0202FC4010E94DF193C
:1037B0009ECF02606F2D70E090E080E040E20E94BA
:1037C000EB19F62EFE01E3FC1591E3FE1191EF01DA
:1037D000C3CFFF24FA94C8CFFE01E3FC1591E3FEAA
:1037E0001191EF01183609F0C4CF08600460FE01A2
:1037F000E3FC1591E3FE1191EF01BBCF1336C1F449
:1038000001FD02C0FF24F394C6010E947A1C97FDBB
:103810001FC08114910429F0F4018083C401019632
:103820004C01FA94F110F0CF00FD61CF53945FCFBB
:103830001B35B9F49E01A4016F2DC6010E94B41A74
:10384000EC01892B89F7F6018381807309F477CF26
:103850008FEF9FEF511073CFCDB7DEB7EFE00C9431
:103860003117C6010E940E1A97FDF2CF1F36A9F13B
:1038700030F4143641F0193639F0006405C01337BE
:10388000B9F01537D1F70062202FA4016F2DC601C2
:103890000E94271A8111C8CFD6CF8114910429F034
:1038A000F4016082C40101964C01FA94FF2071F08A
:1038B000C6010E947A1C3C0197FD08C00E943D167B
:1038C000892B59F3B601C3010E94B61C81149104DF
:1038D00009F4AACFF4011082A7CF0061D5CFFC0173
:1038E0000590061621F00020D9F7C0010895319700
:1038F000CF010895CF93DF93EC012B8120FF1AC0F5
:1039000026FF0CC02F7B2B838E819F8101969F8386
:103910008E838A8190E0DF91CF91089522FF18C0B5
:10392000E881F9818081082E000C990B009729F419
:1039300020622B838FEF9FEFEECF3196F983E883E0
:103940002E813F812F5F3F4F3F832E839927E3CF07
:10395000EA85FB85099597FFF3CF2B81019621F02E
:1039600080E2822B8B83E6CF80E1FBCFFB012381BA
:1039700020FF11C026FD0FC08F3F980771F0828392
:103980002F7D20642383268137812150310937839D
:103990002683992708958FEF9FEF0895F894FFCF1E
:1039A000FFFFFFFF00E100000000000000007103C6
:1039B0008000000000007B04F5059C049104E204F3
:1039C000A004BE0400C180810000000D0A006C6FDD
:1039D00067200073686F636B00616C6C0025640086
:1039E0007365740025660070726573737572650087
:1039F0007365742073686F636B200070736900686F
:103A00006569676874002068656967687420746F09
:103A100020006D6D00556E7265636F676E697A6523
:103A2000642073686F636B207365742061726775BF
:103A3000656D656E740067657400676F74207368E8
:103A40006F636B20002070726573737572653A2026
:103A500000206865696768743A2000556E72656376
:103A60006F676E697A65642073686F636B20276780
:103A70006574272061726775656D656E7400556E9B
:103A80007265636F676E697A65642073686F636BD4
:103A90002061726775656D656E742C206D75737429
:103AA00020757365207365742F6765742F68656C66
:103AB0007000636F6D70726573736F720072756EF4
:103AC0000073657420636F6D70726573736F72201D
:103AD00072756E6E696E672070726573737572654C
:103AE00020746F200069646C650073657420636FD7
:103AF0006D70726573736F722069646C696E672094
:103B0000707265737375726520746F2000556E72E4
:103B100065636F676E697A656420636F6D70726547
:103B200073736F72207365742061726775656D655C
:103B30006E740063757272656E740073746174657F
:103B40000073746F707065640069646C696E6700FF
:103B500072756E6E696E6700737461727400707353
:103B6000692E0073746F7000626C656564004E4F5F
:103B700020424C4545442046554E4354494F4E2023
:0A3B80004D41444520594554000012
:00000001FF
